:020000040800F2
:100000000000022049150008691400086B1400085C
:100010006D1400086F14000871140008000000003F
:100020000000000000000000000000007314000841
:100030007514000800000000771400087914000807
:1000400099150008991500089915000899150008D8
:1000500099150008991500089915000899150008C8
:1000600099150008991500089915000899150008B8
:1000700099150008991500089915000899150008A8
:100080009915000899150008991500089915000898
:100090009915000899150008991500089915000888
:1000A0009915000899150008991500089915000878
:1000B0009915000899150008991500089915000868
:1000C0009915000899150008991500089915000858
:1000D000811400089915000899150008B11400084A
:1000E0009915000899150008991500089915000838
:1000F0009915000899150008991500089915000828
:100100009915000899150008991500089915000817
:100110009915000899150008991500089915000807
:1001200099150008991500089915000899150008F7
:1001300099150008991500089915000899150008E7
:1001400099150008991500089915000899150008D7
:1001500099150008991500089915000899150008C7
:1001600099150008991500089915000899150008B7
:10017000991500089915000899150008000000005D
:0801800099150008991500080B
:1001880010B5054C237833B9044B13B10448AFF3C9
:1001980000800123237010BD7000002000000000C3
:1001A8001C17000808B5034B1BB103490348AFF3FC
:1001B800008008BD00000000740000201C17000823
:1001C800034613F8012B002AFBD1181A013870478F
:1001D80010B504460E4B18784FF47A73B3FBF0F35E
:1001E8000C4A1068B0FBF3F000F0AAF868B90F2CBD
:1001F80001D901200AE0002221464FF0FF3000F02B
:100208005DF8034B5C60002000E0012010BD00BFDA
:10021800000000200800002008B50B4B1A6842F4C3
:1002280000721A601A6842F480621A601A6842F40E
:1002380080721A60032000F02FF80020FFF7C8FF33
:1002480001F06AF8002008BD003C0240034A11682A
:10025800034B1B780B441360704700BF9C000020C1
:1002680000000020014B1868704700BF9C00002068
:1002780038B50446FFF7F6FF0546B4F1FF3F02D054
:10028800044B1B781C44FFF7EDFF401BA042FAD338
:1002980038BD00BF00000020074AD36823F4E0639C
:1002A8001B041B0C000200F4E060184340F0BF6020
:1002B80040F40030D060704700ED00E030B4174BD8
:1002C800DB68C3F30223C3F10704042C28BF04240A
:1002D8001D1D062D18D9033B4FF0FF3505FA04F410
:1002E80021EA0401994005FA03F322EA03031943BA
:1002F80000280BDB0901C9B200F1604000F561403C
:1003080080F8001330BC70470023E5E700F00F00C9
:100318000901C9B2024B1954F4E700BF00ED00E02F
:1003280014ED00E0002807DB00F01F02400901235C
:100338009340024A42F82030704700BF00E100E0D5
:100348000138B0F1807F0AD2064B5860064AF02186
:1003580082F823100020986007221A607047012055
:10036800704700BF10E000E000ED00E070B5044603
:10037800866DFFF777FF94F83530DBB2022B06D095
:1003880080236365002384F83430012070BD05465E
:100398002268136823F0160313602268536923F058
:1003A80080035361236CE3B12268136823F00803C8
:1003B80013602268136823F00103136023681B6825
:1003C80013F0010F11D0FFF74DFF401B0528F5D999
:1003D80020236365002384F83430032084F8350033
:1003E800D4E7A36C002BDFD1E3E7E26D3F23934012
:1003F800B360002084F83400012384F83530C5E761
:1004080090F83530DBB2022B03D0802343650120FE
:100418007047052380F835300268136823F001031C
:10042800136000207047000000230F2B00F2D780D4
:10043800F0B482B039E0072200E00022B2403A432B
:100448000234674E46F82420664A1468EA4302EAF2
:1004580004064F6817F4803F01D045EA0406614C52
:100468002660646802EA04064F6817F4003F01D06A
:1004780045EA04065B4C6660A46802EA04064F6815
:1004880017F4801F01D045EA0406564CA660E468BC
:1004980022404E6816F4001F01D045EA0402514C70
:1004A800E26001330F2B00F2978001229A400C681A
:1004B80004EA0205AA42F4D14C68022C01D0122C9D
:1004C80010D1DE08083650F826C003F00704A7004C
:1004D8000F24BC402CEA040C0C69BC4044EA0C0410
:1004E80040F8264004685F000326BE40F64306EA4B
:1004F800040C4C6804F00304BC4044EA0C04046097
:100508004C6804F1FF3CBCF1010F03D9112C01D058
:10051800122C10D1846806EA040CCC68BC4044EA6A
:100528000C048460446824EA02024C68C4F3001492
:100538009C4014434460C26816408A68BA403243FB
:10054800C2604A6812F0805FABD000220192264A4E
:10055800546C44F480445464526C02F48042019216
:10056800019A9C08A61C1E4A52F8267003F0030242
:1005780096000F22B24027EA02071C4A90423FF435
:100588005CAF02F5806290421AD002F58062904218
:1005980018D002F58062904216D002F5806290422F
:1005A80014D002F58062904212D002F58062904227
:1005B80010D002F5806290423FF43DAF08223DE73B
:1005C80001223BE7022239E7032237E7042235E715
:1005D800052233E7062231E702B0F0BC70477047C6
:1005E80000380140003C0140003802400000024051
:1005F80012B909048161704781617047014B18681D
:10060800704700BF0800002008B5FFF7F7FF044B4C
:100618009B68C3F38223034AD35CD84008BD00BF5C
:10062800003802404417000808B5FFF7E7FF044BFD
:100638009B68C3F34233034AD35CD84008BD00BF6C
:10064800003802404417000882B0154B1B68154A51
:10065800A2FB03235B0A642202FB03F30193019BC1
:1006680043B1019B013B019303689B6813F0020FA0
:10067800F5D003E0436D43F0400343650268136817
:1006880023F0400313600268536823F0E0035360CB
:100698000368DB68072380F8513002B0704700BF59
:1006A80008000020F11976050268536823F08003DA
:1006B80053600268136823F040031360072380F82F
:1006C8005130704700283BD010B5044600238362A0
:1006D80090F85130002B2ED0022384F85130226834
:1006E800136823F0400313606368A2681343E26849
:1006F80013432269134362691343A26902F4007227
:100708001343E2691343226A1343A16A22680B4325
:100718001360638B03F00403616A22680B43536020
:100728002268D36923F40063D36100206065012344
:1007380084F8513010BD80F8503000F009FECBE746
:100748000120704710B584B004464B4B1B684B4AD8
:10075800A2FB03235B0A642202FB03F30293029BBE
:1007680003930268536823F02003536002685368B8
:1007780013F0800F12D0424B4364039B43B1039B99
:10078800013B039394F85130DBB2072BF5D103E01A
:10079800636D43F040036365029B0393536813F052
:1007A800400F12D0374B2364039B43B1039B013B9B
:1007B800039394F85130DBB2072BF5D103E0636D56
:1007C80043F040036365029B0393536813F0020FE1
:1007D8001DD0A36CDBB100221A65A06CFFF7C6FD23
:1007E80008B1402363652268536823F0020353600D
:1007F800039B43B1039B013B039323689B6813F05E
:10080800020FF5D003E0636D43F04003636523688E
:100818005B6813F0010F13D0E36C8BB100221A65EB
:10082800E06CFFF7A3FD08B14023636522681368F5
:1008380023F0400313602268536823F001035360D8
:100848000023E387E386636D402B12D000206065A8
:10085800002200922368D968009199680091009954
:1008680001929B680193019B012384F8513004B0E5
:1008780010BD0120ECE700BF08000020F119760543
:10088800B1060008510600080268D36823F4907383
:10089800D3600268536923F001035361202380F871
:1008A8003A30704790F83930DBB2212B2AD183686F
:1008B800B3F5805F16D0036A5A1C02621A7803687F
:1008C8005A60C38C013B9BB2C384EBB90268D368FE
:1008D80023F08003D3600268D36843F04003D360F9
:1008E80000207047036A1B880268C3F3080353603B
:1008F80003691BB9036A02330362E2E7036A01333F
:100908000362DEE702207047002070472DE9F843B4
:1009180004460268136923F44053C1680B4313610A
:1009280083680269134342691343C2691A43016821
:10093800CB6823F4164323F00C031343CB600268FF
:10094800536923F4407381690B435361C369B3F559
:10095800004F60D00368B84A934200F0148102F552
:100968008062934200F00F81FFF74EFE00EB80009B
:1009780000EB80006568AD00B0FBF5F5AF4FA7FB55
:1009880005356D092E01FFF73FFE00EB800000EBF7
:1009980080006568AD00B0FBF5F9FFF735FE00EBA8
:1009A800800000EB80006568AD00B0FBF5F5A7FBA3
:1009B80005356D094FF0640808FB15952D01323592
:1009C800A7FB05356D0905F0F0053544FFF71CFE5A
:1009D80000EB800000EB80006668B600B0FBF6F61E
:1009E800FFF712FE00EB800000EB800063689B00BD
:1009F800B0FBF3F0A7FB0030400908FB10684FEA92
:100A0800081808F13208A7FB0837C7F3431723680B
:100A18002F449F600DE10368874A93425BD002F53B
:100A28008062934257D0FFF7EFFD00EB800000EBA8
:100A3800800065686D00B0FBF5F5804FA7FB0535B4
:100A48006D092E01FFF7E0FD00EB800000EB800050
:100A580065686D00B0FBF5F9FFF7D6FD00EB800087
:100A680000EB800065686D00B0FBF5F5A7FB053568
:100A78006D094FF0640808FB1595ED003235A7FBAA
:100A880005356D096D0005F4F8753544FFF7BCFDB3
:100A980000EB800000EB800066687600B0FBF6F69D
:100AA800FFF7B2FD00EB800000EB800063685B009D
:100AB800B0FBF3F3A7FB03235B0908FB13684FEABA
:100AC800C80808F13208A7FB0837C7F3421723689C
:100AD8002F449F60ADE0FFF7A7FD00EB800000EB1F
:100AE800800065686D00B0FBF5F5544FA7FB053530
:100AF8006D092E01FFF798FD00EB800000EB8000E8
:100B080065686D00B0FBF5F9FFF78EFD00EB80001E
:100B180000EB800065686D00B0FBF5F5A7FB0535B7
:100B28006D094FF0640808FB1595ED003235A7FBF9
:100B380005356D096D0005F4F8753544FFF774FD4A
:100B480000EB800000EB800066687600B0FBF6F6EC
:100B5800FFF76AFD00EB800000EB800063685B0034
:100B6800B0FBF3F3A7FB03235B0908FB13684FEA09
:100B7800C80808F13208A7FB0837C7F342172368EB
:100B88002F449F6055E0FFF74FFD00EB800000EB1E
:100B980080006568AD00B0FBF5F5284FA7FB05356B
:100BA8006D092E01FFF740FD00EB800000EB80008F
:100BB8006568AD00B0FBF5F9FFF736FD00EB800086
:100BC80000EB80006568AD00B0FBF5F5A7FB0535C7
:100BD8006D094FF0640808FB15952D013235A7FB08
:100BE80005356D0905F0F0053544FFF71DFD00EBEF
:100BF800800000EB80006668B600B0FBF6F6FFF7F1
:100C080013FD00EB800000EB800063689B00B0FBE5
:100C1800F3F0A7FB0030400908FB10684FEA0818FA
:100C280008F13208A7FB0837C7F3431723682F4496
:100C38009F60BDE8F88300BF001001401F85EB519D
:100C480058B310B5044690F839300BB3242384F810
:100C580039302268D36823F40053D3602046FFF765
:100C680055FE2268136923F490431361226853697F
:100C780023F02A0353612268D36843F40053D360F6
:100C88000020E063202384F8393084F83A3010BD1E
:100C980080F8383000F0AAFBD8E701207047704789
:100CA80008B50168CB6823F04003CB60202380F8A7
:100CB8003930FFF7F4FF002008BD704708B590F8F9
:100CC8003A30DBB2222B45D18368B3F5805F0ED072
:100CD800036903BB03685A68836A591C81621A70E6
:100CE800C38D013B9BB2C385F3B1002033E0826A18
:100CF800036943B903685B68C3F308031380836A15
:100D080002338362ECE703685B68DBB21380836AB3
:100D180001338362E4E703685B68826A511C81627D
:100D280003F07F031370DBE70268D36823F0200326
:100D3800D3600268D36823F48073D3600268536970
:100D480023F001035361202380F83A30FFF7B5FF01
:100D5800002000E0022008BD7047000010B50446DE
:100D680002681368D168526913F00F0005D113F0B7
:100D7800200F02D011F0200F53D1002867D012F0B5
:100D8800010202D111F4907F61D013F0010F06D057
:100D980011F4807F03D0E06B40F00100E06313F0B2
:100DA800040F04D01AB1E06B40F00200E06313F0C6
:100DB800020F04D01AB1E06B40F00400E06313F0B6
:100DC800080F04D01AB1E26B42F00802E263E26B4A
:100DD800002A48D013F0200F02D011F0200F24D1A0
:100DE80023685B6903F04003E26B12F0080F00D13F
:100DF8003BB32046FFF748FD23685A6912F0400FBD
:100E08001BD05A6922F040025A61636B8BB11A4AAF
:100E18001A65606BFFF7F4FA28B3606B036D9847A7
:100E280021E02046FFF74AFF1DE02046FFF746FF76
:100E3800D6E72046FFF790FF15E02046FFF78CFF26
:100E480011E02046FFF788FF0023E3630BE013F06F
:100E5800800F02D011F0800F06D113F0400F02D09E
:100E680011F0400F04D110BD2046FFF71BFDFAE733
:100E78002046FFF715FFF6E7850E000808B5806BDA
:100E88000023C385C384FFF767FF08BD4FF0FF3316
:100E9800C360836000234360704738B5054614304B
:100EA80000F0A2FB044600F1140303610560FFF79C
:100EB800EDFF204638BD40687047002A60D0F8B57D
:100EC80004460F4615460268AA4202D2AD1A2F44BC
:100ED8001546A36859198A4221D9206901332A463F
:100EE8003946184400F088FBA368E268934204D2AC
:100EF80059198A4211D9002200E000221D44A56038
:100F0800E368B3F1FF3F27D062B3A36801332268D7
:100F1800934224D2E3606260F8BD0122EEE7D21A60
:100F2800561E581C324639462369184400F064FBA3
:100F3800AD1B2A46B919206900F05EFBA268E36878
:100F48009A4203D3AB4205D3002200E00122013DBF
:100F5800A560D5E70122FAE70023E360D4E7002380
:100F6800E360D8E7A368E1688B4205D222685B1A80
:100F7800134401336360CFE75B1A01336360CBE747
:100F880070472DE9F8434568002D58D0002955D001
:100F98008D4200D30D461F4616460446C368826834
:100FA800934217D82EB101692A461944304600F0F9
:100FB80023FB4FB1E3682B44E360A268934203D953
:100FC8004FF0FF33E360A360002F38D063685B1BEA
:100FD800636034E059190268914211D82EB1016951
:100FE8002A461944304600F007FB002FECD0E3688E
:100FF8002B44E36022689342E6D10023E360E3E7F1
:10100800A2EB03082EB1016942461944304600F0AC
:10101800F3FAA5EB08092EB14A46216906EB080048
:1010280000F0EAFA002FCFD0C4F80C90A3684B4523
:10103800CAD24FF0FF33E360A360C5E70D462846E8
:10104800BDE8F88308B50023FFF79BFF08BD000043
:1010580008B50620FFF721FF034B18600023034A59
:101068001370034A137008BDA0000020FC00002084
:10107800D800002010B500240C4B1C600C4B7E22BD
:101088001A7008225A7001229A7005E0E31C094A76
:10109800115D074AD15401340648FFF791F8A04280
:1010A800F4D80434024B7E221A5510BDF8000020F3
:1010B800A4000020FC00002010B500240C4B1C608C
:1010C8000C4B7E221A700C225A7002229A7005E08C
:1010D800E31C094A115D074AD15401340648FFF759
:1010E8006FF8A042F4D80434024B7E221A5510BD82
:1010F800F8000020A4000020D8000020044B1B6842
:10110800044AD05C322B02D80133014A136070477D
:10111800F8000020A400002010B584B004A901F84C
:10112800090D134C01222068FFF7C7FE24682046EA
:10113800FFF7C1FE02AA01462046FFF783FF9DF88C
:1011480008307E2B01D004B010BD9DF80D307E2BE9
:10115800F9D19DF80A30012B06D09DF80A30022BF0
:10116800F1D1FFF7A9FFEEE7FFF784FFF5E700BF2E
:10117800A000002010B50446FFF722F802462146D9
:10118800014800F0AFFA10BDFC00002010B504467D
:10119800FFF716F802462146014800F0A3FA10BDF1
:1011A800D800002030B58BB000240594069407942D
:1011B8000894099401941E4B1A6B42F080021A633A
:1011C8001A6B02F080020192019A02941A6B42F0A3
:1011D80004021A631A6B02F004020292029A039440
:1011E8001A6B42F002021A631A6B02F002020392AF
:1011F800039A04941A6B42F008021A631B6B03F0FB
:1012080008030493049B0B4D22464FF44051284693
:10121800FFF7EEF94FF44053059301230693079423
:10122800089405A92846FFF7FFF80BB030BD00BFAA
:1012380000380240000C024008B50948094B036019
:10124800002343608360C360036143618361036279
:10125800436283620A23C362FFF734FA08BD00BF02
:10126800300100200038004008B50848084B0360EA
:101278004FF4E133436000238360C36003610C22B1
:1012880042618361C361FFF7DBFC08BD8801002070
:101298000048004008B5002211462420FFF70EF848
:1012A8002420FFF73FF8002211462720FFF706F811
:1012B8002720FFF737F808BD08B5FEF7ADFFFFF7A1
:1012C80071FFFFF7B9FFFFF7CFFFFFF7C1FE0E4829
:1012D800FFF750FF0D48FFF759FFFFF7DBFF0C4BF7
:1012E8001B685A6842F040025A601A6842F040028D
:1012F8001A60084A536983F4005353614FF4967097
:10130800FEF7B6FFF5E700BF4C17000854170008B2
:1013180030010020000C024082B0002100910B4BEC
:101328005A6C42F480425A645A6C02F48042009229
:10133800009A01911A6C42F080521A641B6C03F0F7
:1013480080530193019B02B0704700BF00380240F0
:10135800F0B589B00023039304930593069307938C
:1013680002681F4B9A4201D009B0F0BD00240094D6
:1013780003F500331A6C42F480421A641A6C02F4C2
:1013880080420092009A01941A6B42F004021A6398
:101398001A6B02F004020192019A02941A6B42F04D
:1013A80002021A631B6B03F002030293029B0C23D5
:1013B80003930227049703260696052507950DEB48
:1013C80003010848FFF730F84FF4085303930497D4
:1013D80005940696079503A90348FFF725F8C3E780
:1013E80000380040000802400004024000B589B0FF
:1013F8000023039304930593069307930268164BFF
:101408009A4202D009B05DF804FB0021019103F56E
:10141800F8331A6C42F480221A641A6C02F480229F
:101428000192019A02911A6B42F002021A631B6B35
:1014380003F002030293029B4FF4406303930223D9
:10144800049301230593032306930723079303A912
:101458000248FEF7E9FFD5E70048004000040240D3
:101468007047FEE7FEE7FEE7FEE770477047704704
:1014780008B5FEF7EBFE08BD10B5094A536983F4B9
:1014880080535361FFF73AFE064C2368D860D8684A
:10149800C0B2FFF741FE2046FFF754F910BD00BF68
:1014A800000C02403001002008B50248FFF756FC46
:1014B80008BD00BF8801002008B503460B4A126822
:1014C80042B10A4A106803446A46934206D8074A5A
:1014D800136008BD054A06491160F2E700F05AF8A2
:1014E8000C2303604FF0FF30F3E700BF8C000020AF
:1014F800E80100200F49D1F8883043F47003C1F89F
:1015080088300D4B1A6842F001021A60002098607A
:101518001A6822F0847222F480321A60074A5A60EC
:101528001A6822F480221A60D8604FF000638B603A
:10153800704700BF00ED00E0003802401030002482
:10154800DFF834D0002103E00C4B5B5843500431E2
:101558000B480C4B42189A42F6D30B4A02E0002380
:1015680042F8043B094B9A42F9D3FFF7C3FF00F056
:1015780017F8FFF7A1FE704700000220C8170008FF
:10158800000000207000002070000020E40100200E
:10159800FEE70000014B1868704700BF0C000020F0
:1015A80070B50D4E0D4CA41BA4100025A54209D101
:1015B8000B4E0C4C00F0AEF8A41BA4100025A5425D
:1015C80005D170BD56F8253098470135EEE756F835
:1015D800253098470135F2E7C0170008C017000802
:1015E800C0170008C4170008024B0146186800F02D
:1015F8000FB800BF0C00002010B5431E0A449142EA
:1016080000D110BD11F8014B03F8014FF7E70000B6
:1016180070B5CD1C25F0030508350C2D38BF0C25F9
:10162800002D064601DBA94203D90C2333600020B4
:1016380070BD00F06CF8214A1468214691B9204C1D
:1016480023681BB9304600F03DF820602946304633
:1016580000F038F8431C24D10C233360304600F0E6
:1016680057F8E4E70B685B1B18D40B2B0FD90B60FA
:10167800CD50CC18304600F04BF804F10B00231D78
:1016880020F00700C31AD3D05A42E250D0E78C4268
:101698004B6816BF636013600C46EBE70C4649685D
:1016A800CCE7C41C24F00304A04205D0211A30461C
:1016B80000F008F80130CFD02560DBE79400002067
:1016C8009800002038B5064C0023054608462360DC
:1016D800FFF7F2FE431C02D1236803B12B6038BD2B
:1016E800E001002070B50139044602B970BD2346F7
:1016F80011F8015F03F8015B561E2DB91444A3428B
:10170800F4D003F8015BFAE71C463246EDE7704770
:1017180070470000F8B500BFF8BC08BC9E4670478B
:0C172800F8B500BFF8BC08BC9E46704736
:10173400000000000000000001020304060708097D
:101744000000000001020304416D696E0000000006
:1017540050415353574F5244000000000000000012
:101764000000000000000000000000000000000075
:101774000000000000000000000000000000000065
:101784000000000000000000000000000000000055
:101794000000000000000000000000000000000045
:1017A4000000000000000000000000000000000035
:0C17B40000000000000000000000000029
:0417C000AD0100086F
:0417C400890100088F
:1017C80001000000100000000024F40010000020B8
:1017D8000000000080170008A01700086017000824
:1017E80000000000000000000000000000000000F1
:1017F80000000000000000000000000000000000E1
:1018080000000000000000000000000000000000D0
:1018180000000000000000000000000000000000C0
:1018280000000000000000000000000000000000B0
:040000050800154991
:00000001FF
