:020000040800F2
:1000000000000220891A00080519000807190008D5
:10001000091900080B1900080D190008000000005C
:100020000000000000000000000000000F190008A0
:100030001119000800000000131900081519000824
:10004000D91A0008D91A0008D91A0008D91A0008C4
:10005000D91A0008D91A0008D91A0008D91A0008B4
:10006000D91A0008D91A0008D91A0008D91A0008A4
:10007000D91A0008D91A0008D91A0008D91A000894
:10008000D91A0008D91A0008D91A0008D91A000884
:10009000D91A0008D91A0008D91A0008D91A000874
:1000A000D91A0008D91A0008D91A0008D91A000864
:1000B000D91A0008D91A0008D91A0008D91A000854
:1000C000D91A0008D91A0008D91A0008D91A000844
:1000D000AD190008D91A0008D91A0008F11900084A
:1000E000D91A0008D91A0008D91A0008D91A000824
:1000F000D91A0008D91A0008D91A0008D91A000814
:10010000D91A0008D91A0008D91A0008D91A000803
:10011000D91A0008D91A0008D91A0008D91A0008F3
:10012000D91A0008D91A0008D91A0008D91A0008E3
:10013000D91A0008D91A0008D91A0008D91A0008D3
:10014000D91A0008D91A0008D91A0008D91A0008C3
:10015000D91A0008D91A0008D91A0008D91A0008B3
:10016000D91A0008D91A0008D91A0008D91A0008A3
:10017000D91A0008D91A0008D91A0008000000008E
:08018000D91A0008D91A000881
:1001900010B5054C237833B9044B13B10448AFF3C1
:1001A00000800123237010BD7000002000000000BB
:1001B0004C23000808B5034B1BB103490348AFF3B8
:1001C000008008BD00000000740000204C230008DF
:1001D000034613F8012B002AFBD1181A0138704787
:1001E00001F0FF01102A2BDB10F0070F08D010F8E8
:1001F000013B013A8B422DD010F0070F42B3F6D1EC
:10020000F0B441EA012141EA014122F007047FF004
:1002100000070023F0E80256083C85EA010586EA5B
:10022000010685FA47F5A3FA87F586FA47F6A5FA97
:1002300087F68EB9EED1F0BC01F0FF0102F00702A3
:1002400032B110F8013B013A83EA010313B1F8D14E
:100250000020704701387047002D06BF354603382F
:10026000073815F0010F07D1013015F4807F02BF68
:10027000013015F4C03F0130F0BC0138704700BFB9
:1002800010B504460E4B18784FF47A73B3FBF0F3B5
:100290000C4A1068B0FBF3F000F0AAF868B90F2C14
:1002A00001D901200AE0002221464FF0FF3000F082
:1002B0005DF8034B5C60002000E0012010BD00BF32
:1002C000000000200800002008B50B4B1A6842F41B
:1002D00000721A601A6842F480621A601A6842F466
:1002E00080721A60032000F02FF80020FFF7C8FF8B
:1002F00001F064FA002008BD003C0240034A116886
:10030000034B1B780B441360704700BF9C00002018
:1003100000000020014B1868704700BF9C000020BF
:1003200038B50446FFF7F6FF0546B4F1FF3F02D0AB
:10033000044B1B781C44FFF7EDFF401BA042FAD38F
:1003400038BD00BF00000020074AD36823F4E063F3
:100350001B041B0C000200F4E060184340F0BF6077
:1003600040F40030D060704700ED00E030B4174B2F
:10037000DB68C3F30223C3F10704042C28BF042461
:100380001D1D062D18D9033B4FF0FF3505FA04F467
:1003900021EA0401994005FA03F322EA0303194311
:1003A00000280BDB0901C9B200F1604000F5614093
:1003B00080F8001330BC70470023E5E700F00F0021
:1003C0000901C9B2024B1954F4E700BF00ED00E087
:1003D00014ED00E0002807DB00F01F0240090123B4
:1003E0009340024A42F82030704700BF00E100E02D
:1003F0000138B0F1807F0AD2064B5860064AF021DE
:1004000082F823100020986007221A6070470120AC
:10041000704700BF10E000E000ED00E070B504465A
:10042000866DFFF777FF94F83530DBB2022B06D0EC
:1004300080236365002384F83430012070BD0546B5
:100440002268136823F0160313602268536923F0AF
:1004500080035361236CE3B12268136823F008031F
:1004600013602268136823F00103136023681B687C
:1004700013F0010F11D0FFF74DFF401B0528F5D9F0
:1004800020236365002384F83430032084F835008A
:10049000D4E7A36C002BDFD1E3E7E26D3F23934069
:1004A000B360002084F83400012384F83530C5E7B8
:1004B00090F83530DBB2022B03D080234365012056
:1004C0007047052380F835300268136823F0010374
:1004D000136000207047000000230F2B00F2D7802C
:1004E000F0B482B039E0072200E00022B2403A4383
:1004F0000234674E46F82420664A1468EA4302EA4A
:1005000004064F6817F4803F01D045EA0406614CA9
:100510002660646802EA04064F6817F4003F01D0C1
:1005200045EA04065B4C6660A46802EA04064F686C
:1005300017F4801F01D045EA0406564CA660E46813
:1005400022404E6816F4001F01D045EA0402514CC7
:10055000E26001330F2B00F2978001229A400C6871
:1005600004EA0205AA42F4D14C68022C01D0122CF4
:1005700010D1DE08083650F826C003F00704A700A3
:100580000F24BC402CEA040C0C69BC4044EA0C0467
:1005900040F8264004685F000326BE40F64306EAA2
:1005A000040C4C6804F00304BC4044EA0C040460EE
:1005B0004C6804F1FF3CBCF1010F03D9112C01D0B0
:1005C000122C10D1846806EA040CCC68BC4044EAC2
:1005D0000C048460446824EA02024C68C4F30014EA
:1005E0009C4014434460C26816408A68BA40324353
:1005F000C2604A6812F0805FABD000220192264AA6
:10060000546C44F480445464526C02F4804201926D
:10061000019A9C08A61C1E4A52F8267003F0030299
:1006200096000F22B24027EA02071C4A90423FF48C
:100630005CAF02F5806290421AD002F5806290426F
:1006400018D002F58062904216D002F58062904286
:1006500014D002F58062904212D002F5806290427E
:1006600010D002F5806290423FF43DAF08223DE792
:1006700001223BE7022239E7032237E7042235E76C
:10068000052233E7062231E702B0F0BC704770471D
:1006900000380140003C01400038024000000240A8
:1006A00012B909048161704781617047014B186874
:1006B000704700BF0800002008B5FFF7F7FF044BA4
:1006C0009B68C3F38223034AD35CD84008BD00BFB4
:1006D000003802407423000808B5FFF7E7FF044B19
:1006E0009B68C3F34233034AD35CD84008BD00BFC4
:1006F000003802407423000882B0154B1B68154A6D
:10070000A2FB03235B0A642202FB03F30193019B18
:1007100043B1019B013B019303689B6813F0020FF7
:10072000F5D003E0436D43F040034365026813686E
:1007300023F0400313600268536823F0E003536022
:100740000368DB68072380F8513002B0704700BFB0
:1007500008000020F11976050268536823F0800331
:1007600053600268136823F040031360072380F886
:1007700051307047F8B505460F4616461C462B68A3
:100780009B6837EA03030CBF01230023B34237D031
:10079000B4F1FF3FF3D0FFF7BDFD069BC01AA042A6
:1007A00001D2002CEBD12A68536823F0E003536098
:1007B0006B68B3F5827F0BD0AB6AB3F5005F14D0E2
:1007C000012385F85130002385F85030032018E0CC
:1007D000AB68B3F5004F02D0B3F5806FECD12A6857
:1007E000136823F040031360E6E72A68136823F4D4
:1007F000005313602A68136843F400531360DFE763
:100800000020F8BD10B582B0044600920B460022CD
:100810008021FFF7AFFF034610B9184602B010BDA4
:10082000636D43F0200363650323F6E700283BD0A4
:1008300010B504460023836290F85130002B2ED06F
:10084000022384F851302268136823F040031360B8
:100850006368A2681343E268134322691343626921
:100860001343A26902F400721343E2691343226A3C
:100870001343A16A22680B431360638B03F00403E4
:10088000616A22680B4353602268D36923F40063D2
:10089000D36100206065012384F8513010BD80F8D9
:1008A000503000F0A7FFCBE7012070472DE9F0435F
:1008B00083B0DDF8288090F85040012C00F00B81C7
:1008C0001D4617460E460446012380F85030FFF7B8
:1008D00021FD814694F85100C0B26368012815D00B
:1008E000B3F5827F0AD00223012284F8512000222E
:1008F00084F85020184603B0BDE8F083A368002BAD
:1009000040F0DB80042801D00223EDE7002E00F048
:10091000D680002F00F0D580002D00F0D48094F810
:100920005130DBB2042B02D0052384F85130002370
:100930006365A763E587A5872663E586A5862364A7
:10094000636423681A6812F0400F03D11A6842F0FA
:1009500040021A60E368B3F5006F10D063680BB112
:10096000012D0AD1226B236812781A73236B01338D
:100970002363E38E013B9BB2E386012569E0636854
:100980000BB1012D0AD1226B23681288DA60236B28
:1009900002332363E38E013B9BB2E38601251BE018
:1009A00023689A6812F0010F0DD0E28F92B252B113
:1009B000DA68A36B1A80A36B0233A363E38F013B56
:1009C0009BB2E3870125FFF7A5FCA0EB090040459A
:1009D00002D3B8F1FF3F78D1E38E9BB21BB9E38F0E
:1009E0009BB2002B52D023689A6812F0020FD7D026
:1009F000E28E92B2002AD3D0002DD1D0226B128881
:100A0000DA60236B02332363E38E013B9BB2E38600
:100A10000025C5E723689A6812F0010F0DD0E28F18
:100A200092B252B1DA68A36B1A70A36B0133A3635D
:100A3000E38F013B9BB2E3870125FFF76BFCA0EB43
:100A40000900404502D3B8F1FF3F40D1B8F1000F93
:100A50003FD0E38E9BB213B9E38F9BB2B3B123684F
:100A60009A6812F0020FD5D0E28E92B2002AD1D04D
:100A7000002DCFD0226B12781A73236B01332363BE
:100A8000E38E013B9BB2E3860025C3E74A4641461D
:100A90002046FFF7B7FE034618B120236365012304
:100AA00022E7A268002A7FF41FAF01922268D16872
:100AB000019192680192019A16E7022314E701233B
:100AC00012E7012310E701230EE703230CE70323BA
:100AD0000AE7032308E702230CE7000010B584B0FF
:100AE00004464B4B1B684B4AA2FB03235B0A642260
:100AF00002FB03F30293029B03930268536823F003
:100B0000200353600268536813F0800F12D0424BE9
:100B10004364039B43B1039B013B039394F851301F
:100B2000DBB2072BF5D103E0636D43F0400363654F
:100B3000029B0393536813F0400F12D0374B23648A
:100B4000039B43B1039B013B039394F85130DBB209
:100B5000072BF5D103E0636D43F040036365029B0F
:100B60000393536813F0020F1DD0A36CDBB1002276
:100B70001A65A06CFFF752FC08B140236365226838
:100B8000536823F002035360039B43B1039B013B73
:100B9000039323689B6813F0020FF5D003E0636DA5
:100BA00043F04003636523685B6813F0010F13D0C3
:100BB000E36C8BB100221A65E06CFFF72FFC08B1E3
:100BC000402363652268136823F0400313602268A2
:100BD000536823F0010353600023E387E386636DCA
:100BE000402B12D000206065002200922368D96853
:100BF000009199680091009901929B680193019B73
:100C0000012384F8513004B010BD0120ECE700BF8F
:100C100008000020F119760559070008F9060008B8
:100C20007047000030B585B004460268506893688C
:100C3000C3F3801149B913F0010F06D010F0400F33
:100C400003D0236C2046984708E013F0020F07D02A
:100C500010F0800F04D0636C2046984705B030BD7B
:100C6000C3F340151DB911B913F4807FF6D010F00D
:100C7000200FF3D079B194F85110C9B2032953D0A1
:100C8000616D41F00401616500210091D16800911E
:100C900091680091009965B1616D41F00101616554
:100CA0000021029191680291116821F040011160C8
:100CB000029A13F4807F09D0636D43F008036365E3
:100CC0000023039323689B680393039B636D002BAE
:100CD000C4D02268536823F0E0035360012384F8F2
:100CE000513010F0030F27D02268536823F003031C
:100CF0005360E36C4BB1124A1A65E06CFFF7D8FB06
:100D000018B1636D43F040036365A36C002BA5D05D
:100D10000B4A1A65A06CFFF7CBFB00289ED0636DD1
:100D200043F04003636599E700230193D36801937F
:100D300093680193019B91E72046FFF771FF8DE7D0
:100D4000450D000808B5806B0023C387C386FFF7F5
:100D500067FF08BD0268D36823F49073D36002680C
:100D6000536923F001035361202380F83A30704720
:100D700090F83930DBB2212B2AD18368B3F5805F3C
:100D800016D0036A5A1C02621A7803685A60C38C30
:100D9000013B9BB2C384EBB90268D36823F08003A4
:100DA000D3600268D36843F04003D36000207047EB
:100DB000036A1B880268C3F30803536003691BB905
:100DC000036A02330362E2E7036A01330362DEE788
:100DD00002207047002070472DE9F843044602685E
:100DE000136923F44053C1680B431361836802699C
:100DF000134342691343C2691A430168CB6823F461
:100E0000164323F00C031343CB600268536923F4A9
:100E1000407381690B435361C369B3F5004F60D0E0
:100E20000368B84A934200F0148102F5806293424D
:100E300000F00F81FFF740FC00EB800000EB80002A
:100E40006568AD00B0FBF5F5AF4FA7FB05356D0943
:100E50002E01FFF731FC00EB800000EB800065689D
:100E6000AD00B0FBF5F9FFF727FC00EB800000EBCD
:100E700080006568AD00B0FBF5F5A7FB05356D0991
:100E80004FF0640808FB15952D013235A7FB053599
:100E90006D0905F0F0053544FFF70EFC00EB80000E
:100EA00000EB80006668B600B0FBF6F6FFF704FCC6
:100EB00000EB800000EB800063689B00B0FBF3F068
:100EC000A7FB0030400908FB10684FEA081808F13A
:100ED0003208A7FB0837C7F3431723682F449F60E6
:100EE0000DE10368874A93425BD002F5806293422A
:100EF00057D0FFF7E1FB00EB800000EB8000656856
:100F00006D00B0FBF5F5804FA7FB05356D092E018F
:100F1000FFF7D2FB00EB800000EB800065686D00FE
:100F2000B0FBF5F9FFF7C8FB00EB800000EB800099
:100F300065686D00B0FBF5F5A7FB05356D094FF051
:100F4000640808FB1595ED003235A7FB05356D09E2
:100F50006D0005F4F8753544FFF7AEFB00EB80003B
:100F600000EB800066687600B0FBF6F6FFF7A4FBA6
:100F700000EB800000EB800063685B00B0FBF3F3E4
:100F8000A7FB03235B0908FB13684FEAC80808F1B5
:100F90003208A7FB0837C7F3421723682F449F6026
:100FA000ADE0FFF799FB00EB800000EB8000656887
:100FB0006D00B0FBF5F5544FA7FB05356D092E010B
:100FC000FFF78AFB00EB800000EB800065686D0096
:100FD000B0FBF5F9FFF780FB00EB800000EB800031
:100FE00065686D00B0FBF5F5A7FB05356D094FF0A1
:100FF000640808FB1595ED003235A7FB05356D0932
:101000006D0005F4F8753544FFF766FB00EB8000D2
:1010100000EB800066687600B0FBF6F6FFF75CFB3D
:1010200000EB800000EB800063685B00B0FBF3F333
:10103000A7FB03235B0908FB13684FEAC80808F104
:101040003208A7FB0837C7F3421723682F449F6075
:1010500055E0FFF741FB00EB800000EB8000656886
:10106000AD00B0FBF5F5284FA7FB05356D092E0146
:10107000FFF732FB00EB800000EB80006568AD00FD
:10108000B0FBF5F9FFF728FB00EB800000EB8000D8
:101090006568AD00B0FBF5F5A7FB05356D094FF0B0
:1010A000640808FB15952D013235A7FB05356D0940
:1010B00005F0F0053544FFF70FFB00EB800000EB77
:1010C00080006668B600B0FBF6F6FFF705FB00EBA4
:1010D000800000EB800063689B00B0FBF3F0A7FB8F
:1010E0000030400908FB10684FEA081808F1320880
:1010F000A7FB0837C7F3431723682F449F60BDE859
:10110000F88300BF001001401F85EB512DE9F0412D
:1011100005460F4616469846069C2B681B6837EA1C
:1011200003030CBF01230023B3421DD1B4F1FF3FE1
:10113000F3D02CB1FFF7EEF8A0EB0800A042ECD9F9
:101140002A68D36823F4D073D3602A68536923F0E4
:1011500001035361202385F8393085F83A300023A4
:1011600085F83830032000E00020BDE8F08158B356
:1011700010B5044690F839300BB3242384F8393085
:101180002268D36823F40053D3602046FFF724FE7F
:101190002268136923F4904313612268536923F092
:1011A0002A0353612268D36843F40053D3600020BC
:1011B000E063202384F8393084F83A3010BD80F899
:1011C000383000F065FBD8E7012070472DE9F04189
:1011D00082B01E4690F83930DBB2202B55D1044640
:1011E0000D469046002955D0002A55D090F8383049
:1011F000012B53D0012380F838300023C36321230F
:1012000080F83930FFF786F80746A4F82480A4F860
:10121000268010E000963B46002280212046FFF702
:1012200075FF00283CD12B882268C3F30803536064
:101230002369C3B90235E38C9BB2B3B1E38C013BA4
:101240009BB2E384A368B3F5805FE3D000963B468E
:10125000002280212046FFF759FF18BB2A78236817
:101260005A600135E7E70135E5E700963B46002285
:1012700040212046FFF74AFF0346A8B9202284F800
:101280003920002284F8382000E00223184602B0FA
:10129000BDE8F0810123F9E70123F7E70223F5E731
:1012A0000323F3E70323F1E70323EFE7704708B5D0
:1012B0000168CB6823F04003CB60202380F83930ED
:1012C000FFF7F4FF002008BD704708B590F83A30EA
:1012D000DBB2222B45D18368B3F5805F0ED0036962
:1012E00003BB03685A68836A591C81621A70C38DF4
:1012F000013B9BB2C385F3B1002033E0826A0369EE
:1013000043B903685B68C3F308031380836A02333D
:101310008362ECE703685B68DBB21380836A0133A6
:101320008362E4E703685B68826A511C816203F0B0
:101330007F031370DBE70268D36823F02003D360D8
:101340000268D36823F48073D3600268536923F082
:1013500001035361202380F83A30FFF7B5FF0020E6
:1013600000E0022008BD704710B50446026813680B
:10137000D168526913F00F0005D113F0200F02D08D
:1013800011F0200F53D1002867D012F0010202D1D2
:1013900011F4907F61D013F0010F06D011F4807F1B
:1013A00003D0E06B40F00100E06313F0040F04D0C1
:1013B0001AB1E06B40F00200E06313F0020F04D0BA
:1013C0001AB1E06B40F00400E06313F0080F04D0A2
:1013D0001AB1E26B42F00802E263E26B002A48D0E5
:1013E00013F0200F02D011F0200F24D123685B6985
:1013F00003F04003E26B12F0080F00D13BB320462C
:10140000FFF7A8FC23685A6912F0400F1BD05A69F5
:1014100022F040025A61636B8BB11A4A1A65606B05
:10142000FFF746F828B3606B036D984721E020462C
:10143000FFF74BFF1DE02046FFF747FFD6E72046AA
:10144000FFF791FF15E02046FFF78DFF11E02046E2
:10145000FFF789FF0023E3630BE013F0800F02D056
:1014600011F0800F06D113F0400F02D011F0400FA1
:1014700004D110BD2046FFF77BFCFAE72046FFF7BA
:1014800016FFF6E78914000808B5806B0023C385B2
:10149000C384FFF768FF08BD4FF0FF33C36083606C
:1014A00000234360704738B50546143000F040FB18
:1014B000044600F1140303610560FFF7EDFF2046C9
:1014C00038BD40687047002A60D0F8B504460F4622
:1014D00015460268AA4202D2AD1A2F441546A368E7
:1014E00059198A4221D9206901332A4639461844BC
:1014F00000F026FBA368E268934204D259198A429D
:1015000011D9002200E000221D44A560E368B3F178
:10151000FF3F27D062B3A36801332268934224D2ED
:10152000E3606260F8BD0122EEE7D21A561E581C35
:10153000324639462369184400F002FBAD1B2A46A7
:10154000B919206900F0FCFAA268E3689A4203D353
:10155000AB4205D3002200E00122013DA560D5E7A2
:101560000122FAE70023E360D4E70023E360D8E731
:10157000A368E1688B4205D222685B1A13440133E9
:101580006360CFE75B1A01336360CBE770472DE9F7
:10159000F8434568002D58D0002955D08D4200D31E
:1015A0000D461F4616460446C3688268934217D804
:1015B0002EB101692A461944304600F0C1FA4FB1F4
:1015C000E3682B44E360A268934203D94FF0FF33F2
:1015D000E360A360002F38D063685B1B636034E076
:1015E00059190268914211D82EB101692A4619444D
:1015F000304600F0A5FA002FECD0E3682B44E360FE
:1016000022689342E6D10023E360E3E7A2EB0308FC
:101610002EB1016942461944304600F091FAA5EB1B
:1016200008092EB14A46216906EB080000F088FA45
:10163000002FCFD0C4F80C90A3684B45CAD24FF00E
:10164000FF33E360A360C5E70D462846BDE8F88395
:1016500008B50023FFF79BFF08BD000030B58BB035
:1016600000240594069407940894099401941E4B51
:101670001A6B42F080021A631A6B02F08002019228
:10168000019A02941A6B42F004021A631A6B02F078
:1016900004020292029A03941A6B42F002021A6345
:1016A0001A6B02F002020392039A04941A6B42F03E
:1016B00008021A631B6B03F008030493049B0B4D91
:1016C00022464FF440512846FEF7EAFF4FF44053BC
:1016D0000593012306930794089405A92846FEF76D
:1016E000FBFE0BB030BD00BF00380240000C0240D2
:1016F00008B50948094B0360002343608360C36059
:101700000361436183610362436283620A23C362AC
:10171000FFF78CF808BD00BFB4000020003800407F
:1017200008B50848084B03604FF4E13343600023D9
:101730008360C36003610C2242618361C361FFF770
:1017400016FD08BD0C0100200048004008B500222D
:1017500011462420FEF70AFE2420FEF73BFE00225D
:1017600011462720FEF702FE2720FEF733FE08BDB4
:1017700008B5FEF7A9FDFFF771FFFFF7B9FFFFF707
:10178000CFFF00F0CBF8FFF7E1FF0A4B1B685A6868
:1017900042F040025A601A6842F040021A60064A5B
:1017A000536983F4005353614FF49670FEF7B8FD0C
:1017B000F5E700BFB4000020000C024082B0002119
:1017C00000910B4B5A6C42F480425A645A6C02F4FA
:1017D00080420092009A01911A6C42F080521A6481
:1017E0001B6C03F080530193019B02B0704700BF54
:1017F00000380240F0B589B00023039304930593A9
:101800000693079302681F4B9A4201D009B0F0BDBE
:101810000024009403F500331A6C42F480421A64E9
:101820001A6C02F480420092009A01941A6B42F002
:1018300004021A631A6B02F004020192019A0294E4
:101840001A6B42F002021A631B6B03F0020302934D
:10185000029B0C2303930227049703260696052573
:1018600007950DEB03010848FEF736FE4FF40853C9
:101870000393049705940696079503A90348FEF77A
:101880002BFEC3E70038004000080240000402407D
:1018900000B589B00023039304930593069307933F
:1018A0000268164B9A4202D009B05DF804FB002191
:1018B000019103F5F8331A6C42F480221A641A6C11
:1018C00002F480220192019A02911A6B42F0020204
:1018D0001A631B6B03F002030293029B4FF44063F5
:1018E0000393022304930123059303230693072301
:1018F000079303A90248FEF7EFFDD5E70048004033
:10190000000402407047FEE7FEE7FEE7FEE770478F
:101910007047704708B5FEF7F1FC08BD08B5062012
:10192000FFF7C1FD014B186008BD00BF6401002036
:1019300030B597B016A901F8410D194C0122206865
:10194000FFF7C1FD24682046FFF7BBFD14AA01463E
:101950002046FFF77DFE9DF850207E2A01D017B06B
:1019600030BD9DF855107E29F9D19DF851309DF874
:1019700052009DF853409DF85450039102950194F4
:101980000090084907A800F09FF907A8FEF720FC7F
:101990004FF0FF3382B207A90348FFF717FCDEE7D9
:1019A000640100207C2300080C01002010B584B0E5
:1019B0000D4A536983F4805353610C4C0123009307
:1019C0000DF10F020DF10E012046FEF76FFF9DF89D
:1019D0000F00FFF7ADFF2046FFF724F92046FFF781
:1019E0007DF804B010BD00BF000C0240B400002020
:1019F00008B50248FFF7B8FC08BD00BF0C01002085
:101A000008B503460B4A126842B10A4A10680344FB
:101A10006A46934206D8074A136008BD054A06493C
:101A20001160F2E700F05AF80C2303604FF0FF302A
:101A3000F3E700BF8C000020700100200F49D1F8AF
:101A4000883043F47003C1F888300D4B1A6842F0B7
:101A500001021A60002098601A6822F0847222F451
:101A600080321A60074A5A601A6822F480221A608B
:101A7000D8604FF000638B60704700BF00ED00E05E
:101A80000038024010300024DFF834D0002103E099
:101A90000C4B5B58435004310B480C4B42189A4294
:101AA000F6D30B4A02E0002342F8043B094B9A426A
:101AB000F9D3FFF7C3FF00F017F8FFF759FE70479F
:101AC00000000220302400080000002070000020E8
:101AD000700000206C010020FEE70000014B186838
:101AE000704700BF0C00002070B50D4E0D4CA41BBC
:101AF000A4100025A54209D10B4E0C4C00F026FC89
:101B0000A41BA4100025A54205D170BD56F82530B0
:101B100098470135EEE756F8253098470135F2E74A
:101B20002824000828240008282400082C24000861
:101B3000024B0146186800F05DB800BF0C000020A1
:101B400010B5431E0A44914200D110BD11F8014B5B
:101B500003F8014FF7E7000038B50546002945D0E6
:101B600051F8043C0C1F002BB8BFE41800F0CCF86F
:101B70001F4A1368104633B9636014602846BDE8F5
:101B8000384000F0C2B8A3420CD9216862189342D1
:101B900004BF1A685B68636004BF52182260046067
:101BA000ECE713465A680AB1A242FAD919685818E4
:101BB000A0420BD120680144581882421960DDD13F
:101BC000106852685A6001441960D7E702D90C23A3
:101BD0002B60D3E7206821188A4204BF116852683D
:101BE000626004BF091821605C60C7E738BD00BFB0
:101BF0009400002070B5CD1C25F0030508350C2D90
:101C000038BF0C25002D064601DBA94203D90C2361
:101C10003360002070BD00F077F8214A1468214637
:101C200091B9204C23681BB9304600F03DF8206084
:101C30002946304600F038F8431C24D10C23336089
:101C4000304600F062F8E4E70B685B1B18D40B2BFE
:101C50000FD90B60CD50CC18304600F056F804F187
:101C60000B00231D20F00700C31AD3D05A42E250C4
:101C7000D0E78C424B6816BF636013600C46EBE7FD
:101C80000C464968CCE7C41C24F00304A04205D0EC
:101C9000211A304600F008F80130CFD02560DBE78C
:101CA000940000209800002038B5064C002305461B
:101CB00008462360FFF7A4FE431C02D1236803B14A
:101CC0002B6038BD680100200EB400B59CB01DAB80
:101CD000029006906FF0004109480791049109496C
:101CE00053F8042B05910068019302A900F068F8ED
:101CF000029B00221A701CB05DF804EB03B0704721
:101D00000C0000200802FFFF704770472DE9F047E4
:101D10008E689E4282460C469046994637D88A89FC
:101D200012F4906F31D0256809696F1A6569022332
:101D300005EB450595FBF3F509F101033B449D4295
:101D400038BF1D46530530D52946FFF753FF0646D9
:101D500050B90C23CAF80030A38943F04003A38193
:101D60004FF0FF30BDE8F0873A462169FFF7E8FE03
:101D7000A38923F4906343F08003A3812661656106
:101D80003E44ED1B2660A5604E464E4500D94E46AA
:101D900032464146206800F091FAA3689B1BA3607D
:101DA00023681E4426600020DCE72A4600F09FFAE4
:101DB00006460028E2D121695046FFF7CDFEC8E76C
:101DC0002DE9F04F9DB0804603938B891D060C468C
:101DD00016460FD50B696BB94021FFF70BFF20604A
:101DE000206128B90C23C8F800304FF0FF30C7E05D
:101DF000402363610023099320238DF82930302389
:101E00008DF82A304FF0010B37463D4615F8013B5F
:101E10000BB1252B3ED1B7EB060A0BD05346324609
:101E200021464046FFF772FF013000F0A480099B75
:101E3000534409933B78002B00F09D8000234FF022
:101E4000FF32CDE90523049307938DF853301A939D
:101E50002F46052217F8011B4F48FEF7C1F9049BD6
:101E6000D0B9D90644BF20228DF853201A0744BFA9
:101E70002B228DF853202A782A2A15D0079A2F462C
:101E800000200A25394611F8013B303B092B4DD97A
:101E9000B8B10FE02F46B8E73F4A801A0BFA00F0BE
:101EA000184304903D46D3E7039A111D126803912D
:101EB000002A01DB079204E0524243F0020307923A
:101EC00004933B782E2B0CD17B782A2B33D1039BA8
:101ED0001A1D1B680392002BB8BF4FF0FF33023767
:101EE00005932E4D397803222846FEF779F938B14B
:101EF0004023401B03FA00F0049B03430137049383
:101F0000397827488DF8281006227E1CFEF768F9DC
:101F1000002838D0234B13BB039B073323F0070360
:101F200008330393099B4B4409936DE705FB023289
:101F300001200F46A6E700230137059319460A251D
:101F4000384610F8012B303A092A03D9002BC8D0A3
:101F50000591C6E705FB012101230746F0E703AB26
:101F600000932246104B04A94046AFF30080B0F125
:101F7000FF3F8146D6D1A3895B063FF536AF09986E
:101F80001DB0BDE8F08F03AB00932246064B04A9B9
:101F9000404600F081F8EAE7F4230008FA2300083D
:101FA000FE230008000000000D1D00082DE9F04789
:101FB00091461F468A680B69DDF820809342B8BFBE
:101FC0001346C9F8003091F8432006460C4612B17A
:101FD0000133C9F800302368990642BFD9F80030B0
:101FE0000233C9F80030256815F0060507D104F161
:101FF000190AE368D9F800209B1AAB4228DC94F850
:1020000043302268003318BF012392062DD404F117
:10201000430239463046C047013020D02368E56886
:10202000D9F8002003F00603042B08BFAD1AA368FB
:1020300022690CBF25EAE57500259342C4BF9B1AAF
:10204000ED184FF000091A344D451AD1002008E070
:102050000123524639463046C047013003D14FF084
:10206000FF30BDE8F0870135C3E7E1185A1C302086
:1020700081F84300224494F8451082F8431002335B
:10208000C5E70123224639463046C0470130E6D035
:1020900009F10109D8E700002DE9F04301F1430CF3
:1020A0000C46097E85B06E291746064698460C9A5E
:1020B00000F0B38022D8632936D00AD8002900F076
:1020C000B980582900F0838004F1420584F8421059
:1020D00032E0642901D06929F6D120681368050629
:1020E00003F104012AD51B681160002B03DA2D22AD
:1020F0005B4284F843206F480A2239E0732900F0DC
:102100009D8008D86F2920D07029DDD1236843F045
:102110002003236003E0752917D07829D4D17823D0
:1021200084F84530644855E01368191D1B68116038
:1021300004F1420584F8423001238CE01B681160F1
:1021400010F0400F18BF1BB2CFE713682568181DA9
:102150001060280601D51B6802E06806FBD51B88C5
:1021600054486F2914BF0A220822002184F8431022
:102170006568A560002DC0F29580216821F00401FA
:102180002160002B3DD1002D40F08E806546082A4D
:102190000BD12368DB0708D5236962689A42DEBF4A
:1021A000302305F8013C05F1FF35ACEB0503236155
:1021B000CDF800803B4603AA21463046FFF7F6FEE5
:1021C00001304DD14FF0FF3005B0BDE8F083394804
:1021D00084F84510136821681D1D1B6815600A06E8
:1021E0000BD5CA0744BF41F0200121601BB922680A
:1021F00022F0200222601022B7E74D0648BF9BB2B2
:10220000EFE76546B3FBF2F102FB1133C35C05F85F
:10221000013D0B460029F5D1B9E7136825686169CE
:10222000181D106028061B6801D5196002E06A06B7
:10223000FBD51980002323616546B9E71368191D92
:1022400011601D68626800212846FDF7C9FF08B1CA
:10225000401B606063682361002384F84330A7E774
:1022600023692A4639463046C0470130AAD0236840
:102270009B0713D4E068039B9842B8BF1846A3E7B6
:1022800001234A4639463046C04701309AD00135CD
:10229000E368039A9B1AAB42F2DCEBE7002504F1FA
:1022A0001909F5E7002BACD1037884F8423004F12A
:1022B00042056CE70524000816240008884210B582
:1022C00001EB020307D8421E99420AD011F8014BD4
:1022D00002F8014FF8E78342F5D98118D21AD342A8
:1022E00000D110BD13F8014D01F8014DF7E7F8B525
:1022F000074614460E4621B91146BDE8F840FFF7DF
:1023000079BC22B9FFF728FC25462846F8BD00F025
:1023100014F8A0420FD221463846FFF76BFC054661
:102320000028F2D031462246FFF70AFC31463846F3
:10233000FFF712FCE9E73546E7E751F8043C181FC0
:10234000002BBCBF0B58C01870470000F8B500BF89
:10235000F8BC08BC9E467047F8B500BFF8BC08BC86
:042360009E467047DE
:102364000000000000000000010203040607080941
:102374000000000001020304446174613D257820DB
:1023840025782025782025782025782025780A00AE
:102394000000000000000000000000000000000039
:1023A4000000000000000000000000000000000029
:1023B4000000000000000000000000000000000019
:1023C4000000000000000000000000000000000009
:1023D40000000000000000000000000000000000F9
:1023E40000000000000000000000000000000000E9
:1023F400232D302B2000686C4C00656667454647EA
:10240400003031323334353637383941424344456C
:1024140046003031323334353637383961626364DB
:0424240065660000E9
:04242800B5010008F2
:04242C009101000812
:1024300001000000100000000024F4001000002043
:1024400000000000B4230008D423000894230008EF
:10245000000000000000000000000000000000007C
:10246000000000000000000000000000000000006C
:10247000000000000000000000000000000000005C
:10248000000000000000000000000000000000004C
:10249000000000000000000000000000000000003C
:0400000508001A894C
:00000001FF
